:1000000000100002B50100003D02000045020000A2
:100010004D020000550200005D020000CAE2FFFD33
:100020000000000000000000000000006502000069
:100030006D02000000000000750200007D0200005B
:100040008502000085020000850200008502000094
:100050008502000085020000850200008502000084
:100060008502000085020000850200008502000074
:100070008502000085020000850200008502000064
:100080008502000085020000850200008502000054
:100090008502000085020000850200008502000044
:1000A0008502000085020000850200008502000034
:1000B0008502000085020000850200008502000024
:1000C0008502000085020000850200008502000014
:1000D0008502000085020000850200008502000004
:1000E00085020000850200008502000085020000F4
:1000F0008502000085020000850200007C070000E8
:1001000000000002000000007C0700000010000258
:10011000000000007C07000000200002000000003A
:1001200000000002080000000010000200000000B3
:10013000002000020000000080B489B000AFF86029
:10014000B9607A60BB68FB61FB68BB6100237B61BF
:100150000AE0FB691A1DFA61BA69111DB9611268DA
:100160001A607B6904337B617A697B689A42F0D3B9
:1001700000BF2437BD4680BC704700BF80B485B047
:1001800000AF786039607B68FB600023BB6007E0EC
:10019000FB681A1DFA6000221A60BB680433BB605A
:1001A000BA683B689A42F3D300BF1437BD4680BC9F
:1001B000704700BF80B586B000AF1C4B7B6113E079
:1001C0007B691A1D7A611B683B617B691A1D7A6124
:1001D0001B68FB607B691A1D7A611B68BB60BA688B
:1001E000F9683869FFF7A8FF7B69114A9342E7D3A2
:1001F0000DE07B691A1D7A611B68FB607B691A1D23
:100200007A611B68BB60B968F868FFF7B7FF7B6964
:10021000084A9342EDD3084B7B607B6801221A6049
:1002200000F07AF800F0A4FAFEE700BFFC0000003E
:100230002001000038010000D840074080B400AF22
:10024000FEE700BF80B400AFFEE700BF80B400AFA0
:10025000FEE700BF80B400AFFEE700BF80B400AF90
:10026000FEE700BF80B400AFFEE700BF80B400AF80
:10027000FEE700BF80B400AFFEE700BF80B400AF70
:10028000FEE700BF80B400AFFEE700BFFFFFFFFF47
:10029000FFFFFFFFFFFFFFFFFFFFFFFFFFFFFFFF6E
:1002A000FFFFFFFFFFFFFFFFFFFFFFFFFFFFFFFF5E
:1002B000FFFFFFFFFFFFFFFFFFFFFFFFFFFFFFFF4E
:1002C000FFFFFFFFFFFFFFFFFFFFFFFFFFFFFFFF3E
:1002D000FFFFFFFFFFFFFFFFFFFFFFFFFFFFFFFF2E
:1002E000FFFFFFFFFFFFFFFFFFFFFFFFFFFFFFFF1E
:1002F000FFFFFFFFFFFFFFFFFFFFFFFFFFFFFFFF0E
:1003000080B500AF00F00EF8024B1B680133014AC4
:100310001360F9E70000000280B500AF00F022FA98
:1003200000BF80BD80B500AF00F038F90246024B37
:100330001A6000BF80BD00BF0400000280B483B01B
:1003400000AF0346FB71044AFB79C2F8803000BF5E
:100350000C37BD4680BC70470040074080B400AFFA
:10036000034BD3F88030DBB21846BD4680BC7047E3
:100370000040074080B483B000AF0346FB71044ADD
:10038000FB79C2F8843000BF0C37BD4680BC704793
:100390000040074080B400AF034BD3F88430DBB299
:1003A0001846BD4680BC70470040074080B400AF8F
:1003B000024B1B681846BD4680BC7047740700009E
:1003C00080B400AF024B1846BD4680BC704700BFEA
:1003D000001BB70080B400AF024B1B681846BD4637
:1003E00080BC70477807000080B400AF024B18460D
:1003F000BD4680BC704700BFD8AC070080B485B054
:1004000000AF786039607B6803F03F030133FB6025
:100410003B68FA6802FB03F318461437BD4680BCFC
:10042000704700BF80B584B000AF78607B6803F090
:100430000303002B02D0012B04D007E0FFF7C0FF1D
:10044000F86005E0FFF7B2FFF86001E00023FB6011
:10045000FB6818461037BD4680BD00BF80B500AFB1
:10046000044BD3F8A0301846FFF7DCFF03461846CC
:1004700080BD00BF0040074098B500AF064BD3F8E1
:100480009841FFF7EBFF034619462046FFF7B6FFFA
:100490000346184698BD00BF0040074080B582B0B3
:1004A00000AF00237B60FFF759FF0346012B07D005
:1004B000022B09D0002B0BD1FFF782FF78600AE0F6
:1004C000FFF774FF786006E0FFF78EFF786002E0C8
:1004D00000237B6000BF7B6818460837BD4680BD9F
:1004E00080B582B000AF00237B60FFF753FF034667
:1004F000032B1BD801A252F823F000BF0D0500000A
:10050000150500001D05000025050000FFF7C6FFCA
:1005100078600BE0FFF7A2FF786007E0FFF7ACFF21
:10052000786003E0FFF756FF786000BF7B681846ED
:100530000837BD4680BD00BF80B584B000AF03461C
:10054000FB71FB79FB60FB68032B07D9FB68DBB20F
:10055000043BDBB21846FFF70DFF07E0FB68DBB298
:100560001846FFF7EBFE0020FFF704FF00BF10372F
:10057000BD4680BD80B582B000AFFFF70BFF0346DC
:10058000002B03D1FFF78AFF786002E0FFF7A8FF96
:1005900078607B6818460837BD4680BD80B500AFDF
:1005A000FFF7E8FF0246034BD3F8C030B2FBF3F38A
:1005B000184680BD0040074080B485B000AF786029
:1005C0000C4BD3F8083223F07E4323F08703FB6003
:1005D0007B6823F07E4323F08703FA681343FB60B4
:1005E000044AFB68C2F8083200BF1437BD4680BC1D
:1005F000704700BF0040074080B485B000AF78600E
:100600000C4BD3F8083223F07E4323F08703FB60C2
:100610007B6823F07E4323F08703DB43FA681340B3
:10062000FB60044AFB68C2F8083200BF1437BD46BD
:1006300080BC70470040074080B485B000AF0346DF
:10064000FB710A4BD3F8243123F44053FB60074974
:10065000FB791B0303F44052FB681343C1F82431B8
:1006600000BF1437BD4680BC704700BF0040074044
:1006700080B483B000AF0346FB71044AFB79C2F833
:10068000A03000BF0C37BD4680BC7047004007401B
:1006900080B483B000AF03460A46FB711346BB71BA
:1006A0000749FB7903F03F02BB799B01DBB213439F
:1006B000C1F8983100BF0C37BD4680BC704700BF01
:1006C0000040074080B400AF064BD3F89C3103F0E4
:1006D0000103002B14BF01230023DBB21846BD46E3
:1006E00080BC70470040074080B483B000AF7860A2
:1006F000044A7B68C2F8C03000BF0C37BD4680BCDE
:10070000704700BF0040074080B582B000AF1020A6
:10071000FFF772FF0820FFF76FFF0020FFF7A8FF29
:100720004FF48000FFF748FF02210520FFF7B0FFDC
:100730004FF48000FFF760FF00BFFFF7C3FF0346E1
:1007400083F00103DBB2002BF7D10120FFF7CCFFD0
:100750000220FFF771FF0620FFF7EEFE00BF08370B
:10076000BD4680BD80B500AFFFF7CEFF00BF80BDA6
:0C077000FFF7C6BD001BB70000800000B2
:04000003000001B543
:00000001FF
