:1000000000100002B50100003D02000045020000A2
:100010004D020000550200005D020000CAE2FFFD33
:100020000000000000000000000000006502000069
:100030006D02000000000000750200007D0200005B
:100040008502000085020000850200008502000094
:100050008502000085020000850200008502000084
:100060008502000085020000850200008502000074
:100070008502000085020000850200008502000064
:100080008502000085020000850200008502000054
:1000900085020000050500008502000085020000C1
:1000A0008502000085020000850200008502000034
:1000B0008502000085020000850200008502000024
:1000C0008502000085020000850200008502000014
:1000D0008502000085020000850200008502000004
:1000E00085020000850200008502000085020000F4
:1000F0002505000085020000850200005818000058
:10010000000000020000000058180000001000026B
:10011000000000005818000000200002000000004D
:1001200000000002CC0000000010000200000000EF
:10013000002000020000000080B489B000AFF86029
:10014000B9607A60BB68FB61FB68BB6100237B61BF
:100150000AE0FB691A1DFA61BA69111DB9611268DA
:100160001A607B6904337B617A697B689A42F0D3B9
:1001700000BF2437BD4680BC704700BF80B485B047
:1001800000AF786039607B68FB600023BB6007E0EC
:10019000FB681A1DFA6000221A60BB680433BB605A
:1001A000BA683B689A42F3D300BF1437BD4680BC9F
:1001B000704700BF80B586B000AF1C4B7B6113E079
:1001C0007B691A1D7A611B683B617B691A1D7A6124
:1001D0001B68FB607B691A1D7A611B68BB60BA688B
:1001E000F9683869FFF7A8FF7B69114A9342E7D3A2
:1001F0000DE07B691A1D7A611B68FB607B691A1D23
:100200007A611B68BB60B968F868FFF7B7FF7B6964
:10021000084A9342EDD3084B7B607B6801221A6049
:1002200000F08AFA01F02AFAFEE700BFFC000000A5
:100230002001000038010000D840074080B400AF22
:10024000FEE700BF80B400AFFEE700BF80B400AFA0
:10025000FEE700BF80B400AFFEE700BF80B400AF90
:10026000FEE700BF80B400AFFEE700BF80B400AF80
:10027000FEE700BF80B400AFFEE700BF80B400AF70
:10028000FEE700BF80B400AFFEE700BFFFFFFFFF47
:10029000FFFFFFFFFFFFFFFFFFFFFFFFFFFFFFFF6E
:1002A000FFFFFFFFFFFFFFFFFFFFFFFFFFFFFFFF5E
:1002B000FFFFFFFFFFFFFFFFFFFFFFFFFFFFFFFF4E
:1002C000FFFFFFFFFFFFFFFFFFFFFFFFFFFFFFFF3E
:1002D000FFFFFFFFFFFFFFFFFFFFFFFFFFFFFFFF2E
:1002E000FFFFFFFFFFFFFFFFFFFFFFFFFFFFFFFF1E
:1002F000FFFFFFFFFFFFFFFFFFFFFFFFFFFFFFFF0E
:1003000080B483B000AF0346FB71084997F907300A
:100310005B09FA7902F01F02012000FA02F241F8AB
:10032000232000BF0C37BD4680BC704700E100E0D1
:1003300080B483B000AF0346FB71094997F90730D9
:100340005B09FA7902F01F02012000FA02F2203361
:1003500041F8232000BF0C37BD4680BC704700BF6A
:1003600000E100E080B582B000AF0346FB71FB798D
:10037000184600F099FEFB79184600F0B9FE00BF60
:100380000837BD4680BD00BF80B485B000AFF860BF
:100390007B600B46FB721346BB72F97ABA7AFB6834
:1003A00049010A44796843F8221000BF1437BD465A
:1003B00080BC704780B500AF0C2000F01BFB00BF75
:1003C00080BD00BF80B582B000AF0346FB710B4615
:1003D000BB7113467B71BB795B01DAB27B79134445
:1003E000DAB2FB791146184600F00CFE00BF083760
:1003F000BD4680BD80B485B000AFF860B9601146DD
:100400001A460B46FB711346BB71FB79B879F96844
:10041000BA6852010A44134402461A7000BF1437E6
:10042000BD4680BC704700BF80B483B000AF786029
:100430000B46FB701346BB70FA78F9787B6801F5C0
:10044000006153F82110BB78012000FA03F319432F
:100450007B6802F5006243F8221000BF0C37BD46EE
:1004600080BC704780B483B000AF78607B681B6845
:1004700043F001027B681A6000BF0C37BD4680BCA8
:10048000704700BF80B483B000AF78607B685B6862
:1004900023F040027B685A6000BF0C37BD4680BC29
:1004A000704700BF80B483B000AF786039607B686C
:1004B0003A68DA6000BF0C37BD4680BC704700BFA9
:1004C00080B483B000AF786039607B683A681A61A5
:1004D00000BF0C37BD4680BC704700BF80B485B0FC
:1004E00000AF786039607B681B6823F07C03FB6099
:1004F000FA683B681A437B681A6000BF1437BD4630
:1005000080BC704780B500AF034A0449044801F03D
:100510008FF800BF80BD00BF000000021400000281
:100520000000044080B400AF00BFBD4680BC7047EF
:1005300080B586B000AF00F005F94FF0E05000F054
:1005400063FB80230F2200216D48FFF71DFF8023EE
:100550000E2200216A48FFF717FFFFF72BFF142038
:1005600000F07EFD0F2200210020FFF72BFF13205B
:1005700000F076FD0E2200210120FFF723FF01216C
:100580004FF4961000F0D0FA5E4800F037FF0421D7
:100590005C48FFF7A3FF4FF416515A4800F0B2FF32
:1005A0005848FFF75FFF5748FFF76CFF20230122F1
:1005B0005549564800F088FB80230122544955488C
:1005C00000F082FB01214F48FFF76CFF04214D48EA
:1005D000FFF776FF1520FFF793FE3520FFF7C2FEE9
:1005E000352000F007FA0A2000F03AFD072000F05D
:1005F00037FD062000F034FD474B484A9A6313222A
:100600004749404800F058FF0D2202214FF0E050CA
:10061000FFF70AFF00230D2202214FF0E050FFF701
:10062000E9FE0023FB7000237B613E4BFB6000234F
:100630003B613023FB723C4B4FF4FA521A6151E09C
:10064000FA1C012331492F4800F0E0FF78607B68F5
:10065000002B05DDFA1C01232E492A4800F0A6FFD5
:10066000314B5B68002B07D101230D2202214FF093
:10067000E050FFF7BFFE06E000230D2202214FF0FD
:10068000E050FFF7B7FE284BDB683B613B69002B6E
:1006900015D10123254A1F491A4800F087FF11E0B0
:1006A0003B69632B02D800233B6102E03B69643B5A
:1006B0003B6101231E4A1749124800F077FF3B694E
:1006C000002BEDD104231B4A12490E4800F06EFFA7
:1006D00000237B6102E07B6901337B617A69FB68FF
:1006E0009A42F8D3FB781B2BAAD11520FFF720FEE6
:1006F000044800F0A9FE002318461837BD4680BD07
:1007000000800F4000000440280000021400000296
:10071000480000020000000200800340FF000102C8
:100720002C180000E06735000080054040180000EC
:10073000441800004818000080B500AF00F0D4FD58
:1007400000BF80BD80B500AF00F03EFA0246024B0C
:100750001A6000BF80BD00BFC800000280B483B033
:1007600000AF0346FB71044AFB79C2F8803000BF3A
:100770000C37BD4680BC70470040074080B400AFD6
:10078000034BD3F88030DBB21846BD4680BC7047BF
:100790000040074080B483B000AF0346FB71044AB9
:1007A000FB79C2F8843000BF0C37BD4680BC70476F
:1007B0000040074080B400AF034BD3F88430DBB275
:1007C0001846BD4680BC70470040074080B483B0E7
:1007D00000AF0346FB71044AFB79C2F8D03000BF7A
:1007E0000C37BD4680BC70470040074080B400AF66
:1007F000034BD3F8D0301846BD4680BC704700BFCD
:100800000040074080B400AF024B1B681846BD464D
:1008100080BC70475018000080B400AF024B1846EF
:10082000BD4680BC704700BF001BB70080B400AF5E
:10083000024B1B681846BD4680BC70475418000028
:1008400080B400AF024B1846BD4680BC704700BF65
:10085000D8AC070080B485B000AF786039607B68A1
:1008600003F03F030133FB603B68FA6802FB03F3CC
:1008700018461437BD4680BC704700BF80B584B0B1
:1008800000AF78607B6803F00303002B02D0012BDC
:1008900004D007E0FFF7C0FFF86005E0FFF7B2FF04
:1008A000F86001E00023FB60FB6818461037BD4686
:1008B00080BD00BF80B500AF044BD3F8A030184610
:1008C000FFF7DCFF0346184680BD00BF004007402D
:1008D00098B500AF064BD3F89841FFF7EBFF0346FE
:1008E00019462046FFF7B6FF0346184698BD00BFDD
:1008F0000040074080B582B000AF00237B60FFF767
:100900003DFF0346012B07D0022B09D0002B0BD152
:10091000FFF782FF78600AE0FFF774FF786006E077
:10092000FFF78EFF786002E000237B6000BF7B68EA
:1009300018460837BD4680BD80B582B000AF0023A1
:100940007B60FFF737FF0346032B1BD801A252F849
:1009500023F000BF650900006D0900007509000063
:100960007D090000FFF7C6FF78600BE0FFF7A2FFEC
:10097000786007E0FFF7ACFF786003E0FFF756FF11
:10098000786000BF7B6818460837BD4680BD00BF51
:1009900080B584B000AF0346FB71FB79FB60FB6858
:1009A000032B07D9FB68DBB2043BDBB21846FFF729
:1009B000F1FE07E0FB68DBB21846FFF7CFFE002030
:1009C000FFF7E8FE00BF1037BD4680BD80B582B09E
:1009D00000AFFFF7EFFE0346002B03D1FFF78AFFBE
:1009E000786002E0FFF7A8FF78607B681846083758
:1009F000BD4680BD80B485B000AF0346FB71FB7976
:100A0000FB60FB681F2B0CD90E490E4BD3F8C83086
:100A1000FA68203A012000FA02F21343C1F8C83004
:100A20000AE00849074BD3F8C4300120FA6800FAFD
:100A300002F21343C1F8C43000BF1437BD4680BC76
:100A4000704700BF0040074080B485B000AF034648
:100A5000FB71FB79FB60FB681F2B0DD90F490F4B16
:100A6000D3F8C830FA68203A012000FA02F2D243E3
:100A70001340C1F8C8300BE00849084BD3F8C43024
:100A80000120FA6800FA02F2D2431340C1F8C430E0
:100A900000BF1437BD4680BC704700BF0040074010
:100AA000B0B586B000AFFFF7A1FEF860FB68002B81
:100AB00006D14FF000034FF00004C7E904342BE0E7
:100AC000FFF784FF0246FB68B2FBF3F31A464FF0D0
:100AD0000003C7E90423134BD3F828319BB2BB6052
:100AE000BB68DBB2FF2B17D1BB681B0ADBB27B6094
:100AF000D7E904231D0245EA126514027B6803F559
:100B000080731A464FF000032046294600F0B8FDD6
:100B100003460C46C7E904343B6918461837BD46FE
:100B2000B0BD00BF00400740B0B588B000AF7860EE
:100B30000B46FB70FFF74AFFB861BA697B68B2FBEE
:100B4000F3F3FB61FB69002B01D10123FB61FB691E
:100B5000DBB21846FFF73AFEFB78002B26D07B6805
:100B6000FA6902FB03F3BA69D31A7B617B691A46FF
:100B70004FF000031D0245EA126514027B68FA6912
:100B800002FB03F31A464FF000032046294600F00B
:100B900077FD03460C46C7E902340A4ABB681B02CC
:100BA0009BB243F0FF03C2F8283103E0054B00225B
:100BB000C3F82821FFF774FF034618462037BD46C7
:100BC000B0BD00BF0040074080B500AFFFF7FEFE9C
:100BD0000246034BD3F8C030B2FBF3F3184680BD96
:100BE0000040074080B582B000AF0346FB71FB793F
:100BF000184600F059FAFB79184600F079FA00BF60
:100C00000837BD4680BD00BF80B582B000AF7860B8
:100C10000E20FFF7EFFE0F20FFF7ECFE1020FFF78E
:100C2000E9FE0B20FFF7E6FE0B20FFF7DBFF00BF1E
:100C30000837BD4680BD00BF80B483B000AF786088
:100C40007B680C331A687B6810331B68D31A18460C
:100C50000C37BD4680BC704790B583B000AF78605C
:100C60007B685C687868FFF7E7FF0346E31A18467D
:100C70000C37BD4690BD00BF80B582B000AF786034
:100C80007868FFF7D9FF02467B685B689A42ACBF81
:100C900001230023DBB218460837BD4680BD00BFE4
:100CA00080B483B000AF78607B680C331A687B68CF
:100CB00010331B689A420CBF01230023DBB2184695
:100CC0000C37BD4680BC704780B485B000AFF8607B
:100CD000B9607A603B60FB68BA681A60FB683A6882
:100CE0005A60FB687A689A60FB6800221A61FB68A8
:100CF0001A69FB68DA60012318461437BD4680BCC8
:100D0000704700BF80B584B000AF786039607B6801
:100D10001B68FB607868FFF7AFFF0346002B01D02C
:100D2000002319E07B68DB687A685268013A134057
:100D30007A68926802FB03F3FA681344FB607B68ED
:100D40009B681A463968F86800F096FC7B68DB6897
:100D50005A1C7B68DA60012318461037BD4680BDF7
:100D600080B588B000AFF860B9607A60FB681B6836
:100D7000BB61F868FFF780FF0346002B01D000231A
:100D80007BE0F868FFF768FF78617B69FB61FB68CF
:100D9000DB68FA685268013A1A40FB691344FA6842
:100DA000526893420AD3FB685B681946FB68DB68AC
:100DB000FA685268013A1340CB1AFB617A69FB6901
:100DC000D31A7B61FA697B689342A8BF1346FB6123
:100DD0007A68FB69D31A7B607A697B689342A8BF03
:100DE00013467B617A687B69D31A7B60FB68DB689A
:100DF000FA685268013A1340FA68926802FB03F3FA
:100E0000BA691344BB61FB689B68FA6902FB03F390
:100E10001A46B968B86900F02FFCFB68DA68FB690C
:100E20001A44FB68DA60FB681A68FB68DB68F968DB
:100E3000496801390B40F968896801FB03F31344E1
:100E4000BB61FB689B68FA6902FB03F31A46BB6847
:100E50001344BB60FB689B687A6902FB03F31A4684
:100E6000B968B86900F008FCFB68DA687B691A4465
:100E7000FB68DA60FA697B69134418462037BD467F
:100E800080BD00BF80B584B000AF786039607B68FA
:100E90001B68FB607868FFF703FF0346002B01D057
:100EA000002319E07B681B697A685268013A134095
:100EB0007A68926802FB03F3FA681344FB607B686C
:100EC0009B681A46F968386800F0D6FB7B681B6996
:100ED0005A1C7B681A61012318461037BD4680BD35
:100EE00080B588B000AFF860B9607A60FB681B68B5
:100EF000BB61F868FFF7D4FE0346002B01D0002346
:100F00007BE0F868FFF798FE78617B69FB61FB681E
:100F10001B69FA685268013A1A40FB691344FA687F
:100F2000526893420AD3FB685B681946FB681B69E9
:100F3000FA685268013A1340CB1AFB617A69FB697F
:100F4000D31A7B61FA697B689342A8BF1346FB61A1
:100F50007A68FB69D31A7B607A697B689342A8BF81
:100F600013467B617A687B69D31A7B60FB681B69D7
:100F7000FA685268013A1340FA68926802FB03F378
:100F8000BA691344BB61FB689B68FA6902FB03F30F
:100F90001A46B969B86800F06FFBFB681A69FB690B
:100FA0001A44FB681A61FB681A68FB681B69F968D8
:100FB000496801390B40F968896801FB03F3134460
:100FC000BB61FB689B68FA6902FB03F31A46BB68C6
:100FD0001344BB60FB689B687A6902FB03F31A4603
:100FE000B969B86800F048FBFB681A697B691A4464
:100FF000FB681A61FA697B69134418462037BD46BD
:1010000080BD00BF80B487B000AF03460A46FB71C5
:101010001346BB71FB7903F00F03DB007B61FB79A7
:101020001B09DBB23B610D4A3B6952F82330FF21BB
:101030007A6901FA02F2D2431340FB600749BA7998
:101040007B6902FA03F31A46FB681A433B6941F8CD
:10105000232000BF1C37BD4680BC70470080034082
:1010600080B485B000AF0346FB71FB7903F01F032A
:10107000FB60FB79DB09DBB2BB600A49094ABB684C
:10108000703352F823300120FA6800FA02F21A4352
:10109000BB68703341F8232000BF1437BD4680BCC5
:1010A000704700BF0080034080B483B000AF0346A8
:1010B000FB71FB791F2B0AD90C490C4B9B6CFA79FD
:1010C000203A012000FA02F213438B6408E007493A
:1010D000064B5B6CFA79012000FA02F213434B6471
:1010E00000BF0C37BD4680BC704700BF00400740C2
:1010F00080B483B000AF0346FB71FB791F2B0BD983
:101100000D490D4B9B6CFA79203A012000FA02F24E
:10111000D24313408B6409E00749074B5B6CFA79B3
:10112000012000FA02F2D24313404B6400BF0C3797
:10113000BD4680BC704700BF0040074080B485B00A
:1011400000AF78600C4BD3F8083223F07E4323F0D5
:101150008703FB607B6823F07E4323F08703FA68F4
:101160001343FB60044AFB68C2F8083200BF14371F
:10117000BD4680BC704700BF0040074080B485B0CA
:1011800000AF78600C4BD3F8083223F07E4323F095
:101190008703FB607B6823F07E4323F08703DB43F8
:1011A000FA681340FB60044AFB68C2F8083200BFCB
:1011B0001437BD4680BC70470040074080B485B0FE
:1011C00000AF0346FB710A4BD3F8243123F440539C
:1011D000FB600749FB791B0303F44052FB68134390
:1011E000C1F8243100BF1437BD4680BC704700BF32
:1011F0000040074080B483B000AF0346FB71044A4F
:10120000FB79C2F8A03000BF0C37BD4680BC7047E8
:101210000040074080B483B000AF03460A46FB712C
:101220001346BB710749FB7903F03F02BB799B0171
:10123000DBB21343C1F8983100BF0C37BD4680BC08
:10124000704700BF0040074080B400AF064BD3F8A2
:101250009C3103F00103002B14BF01230023DBB2F8
:101260001846BD4680BC70470040074080B483B03C
:1012700000AF7860044A7B68C2F8C03000BF0C370A
:10128000BD4680BC704700BF0040074080B582B0BB
:1012900000AF1020FFF772FF0820FFF76FFF00205C
:1012A000FFF7A8FF4FF48000FFF748FF0221052059
:1012B000FFF7B0FF4FF48000FFF760FF00BFFFF7BC
:1012C000C3FF034683F00103DBB2002BF7D10120FB
:1012D000FFF7CCFF0220FFF771FF0620FFF758FB56
:1012E00000BF0837BD4680BD80B500AFFFF7CEFF19
:1012F00000BF80BD80B582B000AF0346FB71FB79B3
:101300001846FFF7D1FEFB791846FFF7F1FE00BF44
:101310000837BD4680BD00BF80B483B000AF7860A1
:101320007B680C331A687B6810331B689A420CBFC9
:1013300001230023DBB218460C37BD4680BC704742
:1013400080B483B000AF78600B46FB70FA787B689E
:10135000DA6100BF0C37BD4680BC704780B483B0F3
:1013600000AF78607B685B69C3F3080318460C37ED
:10137000BD4680BC704700BF80B483B000AF7860CA
:1013800039607B683A68DA6000BF0C37BD4680BCC4
:10139000704700BF80B483B000AF786039607B686D
:1013A0003A681A6100BF0C37BD4680BC704700BF69
:1013B00080B483B000AF78607B689B6818460C37B8
:1013C000BD4680BC704700BF80B483B000AF78607A
:1013D0007B68084A934201D1312306E07B68064AC4
:1013E000934201D1322300E0332318460C37BD4627
:1013F00080BC7047000004400040044080B582B0CB
:1014000000AF78607868FFF7DFFF03461846FFF704
:10141000F1FA7B680A4A934203D13120FFF76AFF51
:101420000AE07B68074A934203D13220FFF762FF4C
:1014300002E03320FFF75EFF00BF0837BD4680BDE6
:10144000000004400040044080B582B000AF7860E6
:101450007868FFF7B9FF03461846FFF7F5FA00BFB3
:101460000837BD4680BD00BF80B586B000AFF860CC
:10147000B9607A6000237B61BB683B610BE03B692C
:101480001B781946F868FFF75BFF3B6901333B6146
:101490007B6901337B617A697B689A4207DAF86875
:1014A000FFF786FF034603F00403002BE7D17B69B7
:1014B00018461837BD4680BD80B588B000AFF860CB
:1014C000B9607A600023FB61BB68BB6111E07A6898
:1014D000B969F868FFF7C8FF78617A687B69D31A41
:1014E0007B60FA697B691344FB617B69BA691344C9
:1014F000BB617B68002BEADCFB6918462037BD46E0
:1015000080BD00BF80B584B000AF78603960FFF760
:10151000C7FA02463B681B01B2FBF3F3FB60FB68B2
:101520005A1E7B681A6200BF1037BD4680BD00BFDF
:1015300080B584B000AF786039600BE07868FFF761
:101540000DFF0346DBB2FB7307F10F031946386842
:10155000FFF7D8FB7868FFF72BFF034603F0010382
:10156000002BEBD100BF1037BD4680BD80B584B0E5
:1015700000AF7860396004E0FB7B19467868FFF7BC
:10158000DFFE7868FFF714FF034603F00403002B27
:1015900008D007F10F0319463868FFF773FC0346BC
:1015A000002BE9D100BF1037BD4680BD80B586B0A5
:1015B00000AFF860B9607A603B607B687B610421B2
:1015C000F868FFF7E7FE3A687969B868FFF7C8FB83
:1015D00003463B61B968F868FFF7C8FF7A693B6961
:1015E000D1183A683B69D31A1A46B868FFF7B8FBB6
:1015F00003461A463B6913443B610421F868FFF730
:10160000BBFE3B6918461837BD4680BD80B584B027
:1016100000AFF860B9607A603B603A687968B86892
:10162000FFF75EFC034618461037BD4680BD00BF7D
:1016300080B584B000AFF860B9607A60F868FFF7F1
:10164000B7FE034603F00403002B0DD07968F86859
:10165000FFF78CFF7868FFF75FFE0346002B03D08F
:101660000421F868FFF796FEB968F868FFF760FF95
:1016700000BF1037BD4680BD00F0BDB8FEF758BFB3
:101680005FF0000C30B51C0022D112006FD09142E7
:1016900006D305460846002100F06FF804462846A8
:1016A00000F06BF80A462146BDE830401CF0404F80
:1016B00008BF704703D54942404261F100015FEA2B
:1016C0008C0C38BF70475B42524263F10003704795
:1016D00042D41C0C04BF1B040CF1100C13F07F4F00
:1016E00004BF1B020CF1080C13F0704F04BF1B0168
:1016F0000CF1040C13F0404F04BF0CF1020C5FEA34
:1017000083035CBF0CF1010C5B00CCF1200E22FACC
:101710000EF4234302FA0CF200FA0CF520FA0EF054
:1017200001FA0CF4204321FA0EF114461A4600F097
:1017300024F8A4FB0023AA1A71EB03033CBF1B1976
:101740000138CCF1200E22FA0CF203FA0EF42243F7
:1017500023FA0CF30021A7E7821A71EB03033CBFC5
:1017600002460B464FF0000141F100009CE70020CB
:101770000021BDE8304000F03DB80423B1EB122F4A
:1017800009D2090241EA10610002013B08BF70471B
:10179000B1EB122FF5D30018494134BF9142891A99
:1017A0004041494134BF9142891A4041494134BFC7
:1017B0009142891A4041494134BF9142891A4041BE
:1017C000494134BF9142891A4041494134BF914255
:1017D000891A4041494134BF9142891A40414941E7
:1017E00034BF9142891A4041A3F1010313F00F0F56
:1017F000D2D17047704740EA0103DB0703460CD49F
:101800000346043A22BF51F804CB43F804CBB2F1AB
:101810000402F7D2043208BF7047013A24BF11F81E
:1018200001CB03F801CBF8D87047FFFF4C50433190
:10183000353137205541525420746573740D0A00B8
:1018400030000000310000000D0A0D0A00FFFFFF0C
:08185000001BB700008000003E
:04000003000001B543
:00000001FF
